{
  "fileName": "GiveAway.sol",
  "contractName": "GiveAway",
  "source": "// contracts/GiveAway.sol\n// SPDX-License-Identifier: Apache-2.0\npragma solidity >=0.6.0 <0.8.0;\n\nimport \"@openzeppelin/contracts/access/Ownable.sol\";\nimport \"@openzeppelin/contracts/utils/Pausable.sol\";\n\ncontract GiveAway is Ownable, Pausable{\n\n    uint public constant RETWEET_INDEX = 0;\n\n    uint public constant LIKE_INDEX = 1;\n\n    struct Rules {\n        uint256 scoreRetweet;\n        uint256 scoreLike;\n    }\n\n    struct Participant {\n        bytes id;\n        uint[2] status;\n    }\n\n    string public _name;\n    uint256 public _maxParticipants;\n    Rules public _rules;\n\n\n    address [] _listParticipants;\n    mapping(address => Participant) public _participants;\n    string public _tweetLink;\n    uint public winnerIndex;\n\n    modifier onlyRegisteredUser()\n    {\n        require(keccak256(_participants[msg.sender].id) != keccak256(bytes(\"\")), \"You need to validate your participation\");\n        _;\n    }\n\n\n    constructor (string memory name, string memory tweetLink, uint256 maxParticipants, uint256 scoreRetweet, uint256 scoreLike) public payable {\n        require(msg.value>0);\n        _maxParticipants = maxParticipants;\n        _name = name;\n        _rules = Rules(scoreRetweet, scoreLike);\n        _tweetLink = tweetLink;\n    }\n\n    function participate(string memory id) public payable whenNotPaused{\n        require(_listParticipants.length < _maxParticipants, \"The maximum number of participants is reached\");\n        require(keccak256(_participants[msg.sender].id) == keccak256(bytes(\"\")), \"You have already validated your participation\");\n        _listParticipants.push(msg.sender);\n        _participants[msg.sender].id = bytes(id) ;\n    }\n\n    function retweet() public payable onlyRegisteredUser whenNotPaused{\n        require(_participants[msg.sender].status[RETWEET_INDEX] == 0, \"You can only retweet once\");\n        _participants[msg.sender].status[RETWEET_INDEX] = 1;\n    }\n\n    function like() public payable onlyRegisteredUser whenNotPaused {\n        require(_participants[msg.sender].status[LIKE_INDEX] == 0, \"You can only like once\");\n        _participants[msg.sender].status[LIKE_INDEX] = 1;\n\n    }\n\n    function getMyScore() public view returns (uint256) {\n        return getScore(msg.sender);\n    }\n\n    function getScore(address participant) public view returns (uint256) {\n        return _participants[participant].status[RETWEET_INDEX] * _rules.scoreRetweet\n        + _participants[participant].status[LIKE_INDEX] * _rules.scoreLike;\n\n    }\n\n    function isUserParticipating(address participant) public view returns (bool){\n        return keccak256(_participants[participant].id) != keccak256(bytes(\"\"));\n    }\n\n    function amIParticipating() public view returns (bool){\n        return isUserParticipating(msg.sender);\n    }\n\n    function numberOfParticipants() public view returns (uint256){\n        return _listParticipants.length;\n    }\n\n    function close() public payable onlyOwner whenNotPaused{\n        if(numberOfParticipants()>0){\n            uint winnerFound;\n            uint scoreWinner = 0;\n            for (uint i = 0; i < _listParticipants.length; i++) {\n                uint currentScore = getScore(_listParticipants[i]);\n                if(currentScore > scoreWinner){\n                    winnerFound = i;\n                    scoreWinner = currentScore;\n                }\n            }\n            winnerIndex = winnerFound;\n        }\n        _pause();\n    }\n\n    function getWinnerId() public view whenPaused returns(string memory){\n        require(numberOfParticipants()>0, \"No found participant\");\n        return string(_participants[_listParticipants[winnerIndex]].id);\n    }\n\n    function getWinnerAddress() public view whenPaused returns(address){\n        require(numberOfParticipants()>0, \"No found participant\");\n        return _listParticipants[winnerIndex];\n    }\n}\n",
  "sourcePath": "contracts/GiveAway.sol",
  "abi": [
    {
      "inputs": [
        {
          "internalType": "string",
          "name": "name",
          "type": "string"
        },
        {
          "internalType": "string",
          "name": "tweetLink",
          "type": "string"
        },
        {
          "internalType": "uint256",
          "name": "maxParticipants",
          "type": "uint256"
        },
        {
          "internalType": "uint256",
          "name": "scoreRetweet",
          "type": "uint256"
        },
        {
          "internalType": "uint256",
          "name": "scoreLike",
          "type": "uint256"
        }
      ],
      "stateMutability": "payable",
      "type": "constructor"
    },
    {
      "anonymous": false,
      "inputs": [
        {
          "indexed": true,
          "internalType": "address",
          "name": "previousOwner",
          "type": "address"
        },
        {
          "indexed": true,
          "internalType": "address",
          "name": "newOwner",
          "type": "address"
        }
      ],
      "name": "OwnershipTransferred",
      "type": "event"
    },
    {
      "anonymous": false,
      "inputs": [
        {
          "indexed": false,
          "internalType": "address",
          "name": "account",
          "type": "address"
        }
      ],
      "name": "Paused",
      "type": "event"
    },
    {
      "anonymous": false,
      "inputs": [
        {
          "indexed": false,
          "internalType": "address",
          "name": "account",
          "type": "address"
        }
      ],
      "name": "Unpaused",
      "type": "event"
    },
    {
      "inputs": [],
      "name": "LIKE_INDEX",
      "outputs": [
        {
          "internalType": "uint256",
          "name": "",
          "type": "uint256"
        }
      ],
      "stateMutability": "view",
      "type": "function"
    },
    {
      "inputs": [],
      "name": "RETWEET_INDEX",
      "outputs": [
        {
          "internalType": "uint256",
          "name": "",
          "type": "uint256"
        }
      ],
      "stateMutability": "view",
      "type": "function"
    },
    {
      "inputs": [],
      "name": "_maxParticipants",
      "outputs": [
        {
          "internalType": "uint256",
          "name": "",
          "type": "uint256"
        }
      ],
      "stateMutability": "view",
      "type": "function"
    },
    {
      "inputs": [],
      "name": "_name",
      "outputs": [
        {
          "internalType": "string",
          "name": "",
          "type": "string"
        }
      ],
      "stateMutability": "view",
      "type": "function"
    },
    {
      "inputs": [
        {
          "internalType": "address",
          "name": "",
          "type": "address"
        }
      ],
      "name": "_participants",
      "outputs": [
        {
          "internalType": "bytes",
          "name": "id",
          "type": "bytes"
        }
      ],
      "stateMutability": "view",
      "type": "function"
    },
    {
      "inputs": [],
      "name": "_rules",
      "outputs": [
        {
          "internalType": "uint256",
          "name": "scoreRetweet",
          "type": "uint256"
        },
        {
          "internalType": "uint256",
          "name": "scoreLike",
          "type": "uint256"
        }
      ],
      "stateMutability": "view",
      "type": "function"
    },
    {
      "inputs": [],
      "name": "_tweetLink",
      "outputs": [
        {
          "internalType": "string",
          "name": "",
          "type": "string"
        }
      ],
      "stateMutability": "view",
      "type": "function"
    },
    {
      "inputs": [],
      "name": "amIParticipating",
      "outputs": [
        {
          "internalType": "bool",
          "name": "",
          "type": "bool"
        }
      ],
      "stateMutability": "view",
      "type": "function"
    },
    {
      "inputs": [],
      "name": "close",
      "outputs": [],
      "stateMutability": "payable",
      "type": "function"
    },
    {
      "inputs": [],
      "name": "getMyScore",
      "outputs": [
        {
          "internalType": "uint256",
          "name": "",
          "type": "uint256"
        }
      ],
      "stateMutability": "view",
      "type": "function"
    },
    {
      "inputs": [
        {
          "internalType": "address",
          "name": "participant",
          "type": "address"
        }
      ],
      "name": "getScore",
      "outputs": [
        {
          "internalType": "uint256",
          "name": "",
          "type": "uint256"
        }
      ],
      "stateMutability": "view",
      "type": "function"
    },
    {
      "inputs": [],
      "name": "getWinnerAddress",
      "outputs": [
        {
          "internalType": "address",
          "name": "",
          "type": "address"
        }
      ],
      "stateMutability": "view",
      "type": "function"
    },
    {
      "inputs": [],
      "name": "getWinnerId",
      "outputs": [
        {
          "internalType": "string",
          "name": "",
          "type": "string"
        }
      ],
      "stateMutability": "view",
      "type": "function"
    },
    {
      "inputs": [
        {
          "internalType": "address",
          "name": "participant",
          "type": "address"
        }
      ],
      "name": "isUserParticipating",
      "outputs": [
        {
          "internalType": "bool",
          "name": "",
          "type": "bool"
        }
      ],
      "stateMutability": "view",
      "type": "function"
    },
    {
      "inputs": [],
      "name": "like",
      "outputs": [],
      "stateMutability": "payable",
      "type": "function"
    },
    {
      "inputs": [],
      "name": "numberOfParticipants",
      "outputs": [
        {
          "internalType": "uint256",
          "name": "",
          "type": "uint256"
        }
      ],
      "stateMutability": "view",
      "type": "function"
    },
    {
      "inputs": [],
      "name": "owner",
      "outputs": [
        {
          "internalType": "address",
          "name": "",
          "type": "address"
        }
      ],
      "stateMutability": "view",
      "type": "function"
    },
    {
      "inputs": [
        {
          "internalType": "string",
          "name": "id",
          "type": "string"
        }
      ],
      "name": "participate",
      "outputs": [],
      "stateMutability": "payable",
      "type": "function"
    },
    {
      "inputs": [],
      "name": "paused",
      "outputs": [
        {
          "internalType": "bool",
          "name": "",
          "type": "bool"
        }
      ],
      "stateMutability": "view",
      "type": "function"
    },
    {
      "inputs": [],
      "name": "renounceOwnership",
      "outputs": [],
      "stateMutability": "nonpayable",
      "type": "function"
    },
    {
      "inputs": [],
      "name": "retweet",
      "outputs": [],
      "stateMutability": "payable",
      "type": "function"
    },
    {
      "inputs": [
        {
          "internalType": "address",
          "name": "newOwner",
          "type": "address"
        }
      ],
      "name": "transferOwnership",
      "outputs": [],
      "stateMutability": "nonpayable",
      "type": "function"
    },
    {
      "inputs": [],
      "name": "winnerIndex",
      "outputs": [
        {
          "internalType": "uint256",
          "name": "",
          "type": "uint256"
        }
      ],
      "stateMutability": "view",
      "type": "function"
    }
  ],
  "bytecode": "0x60806040526040516200238338038062002383833981810160405260a08110156200002957600080fd5b81019080805160405193929190846401000000008211156200004a57600080fd5b838201915060208201858111156200006157600080fd5b82518660018202830111640100000000821117156200007f57600080fd5b8083526020830192505050908051906020019080838360005b83811015620000b557808201518184015260208101905062000098565b50505050905090810190601f168015620000e35780820380516001836020036101000a031916815260200191505b50604052602001805160405193929190846401000000008211156200010757600080fd5b838201915060208201858111156200011e57600080fd5b82518660018202830111640100000000821117156200013c57600080fd5b8083526020830192505050908051906020019080838360005b838110156200017257808201518184015260208101905062000155565b50505050905090810190601f168015620001a05780820380516001836020036101000a031916815260200191505b506040526020018051906020019092919080519060200190929190805190602001909291905050506000620001da6200031260201b60201c565b9050806000806101000a81548173ffffffffffffffffffffffffffffffffffffffff021916908373ffffffffffffffffffffffffffffffffffffffff1602179055508073ffffffffffffffffffffffffffffffffffffffff16600073ffffffffffffffffffffffffffffffffffffffff167f8be0079c531659141344cd1fd0a4f28419497f9722a3daafe3b4186f6b6457e060405160405180910390a35060008060146101000a81548160ff02191690831515021790555060003411620002a057600080fd5b826002819055508460019080519060200190620002bf9291906200031a565b50604051806040016040528083815260200182815250600360008201518160000155602082015181600101559050508360079080519060200190620003069291906200031a565b505050505050620003c9565b600033905090565b828054600181600116156101000203166002900490600052602060002090601f016020900481019282601f106200035d57805160ff19168380011785556200038e565b828001600101855582156200038e579182015b828111156200038d57825182559160200191906001019062000370565b5b5090506200039d9190620003a1565b5090565b620003c691905b80821115620003c2576000816000905550600101620003a8565b5090565b90565b611faa80620003d96000396000f3fe6080604052600436106101405760003560e01c80638da5cb5b116100b6578063d47875d01161006f578063d47875d014610627578063d5fedc501461068c578063f1599f2c14610756578063f2fde38b14610781578063f578ebaa146107d2578063f60e49b5146107dc57610140565b80638da5cb5b146104b15780638f00cbfa146105085780639f89e75514610533578063a523b88a14610562578063b5e9757c1461056c578063d28d88521461059757610140565b806343d726d61161010857806343d726d61461037b5780635c975abb14610385578063715018a6146103b45780637417040e146103cb5780637c1f9dc5146103f65780638a258aa81461048657610140565b80630aea68061461014557806310a37c26146101d55780631d27769f1461022c57806327b9d6f7146102e757806327c87c3314610350575b600080fd5b34801561015157600080fd5b5061015a61080e565b6040518080602001828103825283818151815260200191508051906020019080838360005b8381101561019a57808201518184015260208101905061017f565b50505050905090810190601f1680156101c75780820380516001836020036101000a031916815260200191505b509250505060405180910390f35b3480156101e157600080fd5b506101ea610a28565b604051808273ffffffffffffffffffffffffffffffffffffffff1673ffffffffffffffffffffffffffffffffffffffff16815260200191505060405180910390f35b6102e56004803603602081101561024257600080fd5b810190808035906020019064010000000081111561025f57600080fd5b82018360208201111561027157600080fd5b8035906020019184600183028401116401000000008311171561029357600080fd5b91908080601f016020809104026020016040519081016040528093929190818152602001838380828437600081840152601f19601f820116905080830192505050505050509192919290505050610b67565b005b3480156102f357600080fd5b506103366004803603602081101561030a57600080fd5b81019080803573ffffffffffffffffffffffffffffffffffffffff169060200190929190505050610e1d565b604051808215151515815260200191505060405180910390f35b34801561035c57600080fd5b50610365610ee9565b6040518082815260200191505060405180910390f35b610383610eee565b005b34801561039157600080fd5b5061039a6110da565b604051808215151515815260200191505060405180910390f35b3480156103c057600080fd5b506103c96110f0565b005b3480156103d757600080fd5b506103e0611278565b6040518082815260200191505060405180910390f35b34801561040257600080fd5b5061040b611285565b6040518080602001828103825283818151815260200191508051906020019080838360005b8381101561044b578082015181840152602081019050610430565b50505050905090810190601f1680156104785780820380516001836020036101000a031916815260200191505b509250505060405180910390f35b34801561049257600080fd5b5061049b611323565b6040518082815260200191505060405180910390f35b3480156104bd57600080fd5b506104c6611328565b604051808273ffffffffffffffffffffffffffffffffffffffff1673ffffffffffffffffffffffffffffffffffffffff16815260200191505060405180910390f35b34801561051457600080fd5b5061051d611351565b6040518082815260200191505060405180910390f35b34801561053f57600080fd5b50610548611357565b604051808215151515815260200191505060405180910390f35b61056a611367565b005b34801561057857600080fd5b5061058161161e565b6040518082815260200191505060405180910390f35b3480156105a357600080fd5b506105ac611624565b6040518080602001828103825283818151815260200191508051906020019080838360005b838110156105ec5780820151818401526020810190506105d1565b50505050905090810190601f1680156106195780820380516001836020036101000a031916815260200191505b509250505060405180910390f35b34801561063357600080fd5b506106766004803603602081101561064a57600080fd5b81019080803573ffffffffffffffffffffffffffffffffffffffff1690602001909291905050506116c2565b6040518082815260200191505060405180910390f35b34801561069857600080fd5b506106db600480360360208110156106af57600080fd5b81019080803573ffffffffffffffffffffffffffffffffffffffff16906020019092919050505061177a565b6040518080602001828103825283818151815260200191508051906020019080838360005b8381101561071b578082015181840152602081019050610700565b50505050905090810190601f1680156107485780820380516001836020036101000a031916815260200191505b509250505060405180910390f35b34801561076257600080fd5b5061076b611830565b6040518082815260200191505060405180910390f35b34801561078d57600080fd5b506107d0600480360360208110156107a457600080fd5b81019080803573ffffffffffffffffffffffffffffffffffffffff169060200190929190505050611840565b005b6107da611a4d565b005b3480156107e857600080fd5b506107f1611d04565b604051808381526020018281526020019250505060405180910390f35b6060600060149054906101000a900460ff16610892576040517f08c379a00000000000000000000000000000000000000000000000000000000081526004018080602001828103825260148152602001807f5061757361626c653a206e6f742070617573656400000000000000000000000081525060200191505060405180910390fd5b600061089c611278565b1161090f576040517f08c379a00000000000000000000000000000000000000000000000000000000081526004018080602001828103825260148152602001807f4e6f20666f756e64207061727469636970616e7400000000000000000000000081525060200191505060405180910390fd5b6006600060056008548154811061092257fe5b9060005260206000200160009054906101000a900473ffffffffffffffffffffffffffffffffffffffff1673ffffffffffffffffffffffffffffffffffffffff1673ffffffffffffffffffffffffffffffffffffffff1681526020019081526020016000206000018054600181600116156101000203166002900480601f016020809104026020016040519081016040528092919081815260200182805460018160011615610100020316600290048015610a1e5780601f106109f357610100808354040283529160200191610a1e565b820191906000526020600020905b815481529060010190602001808311610a0157829003601f168201915b5050505050905090565b60008060149054906101000a900460ff16610aab576040517f08c379a00000000000000000000000000000000000000000000000000000000081526004018080602001828103825260148152602001807f5061757361626c653a206e6f742070617573656400000000000000000000000081525060200191505060405180910390fd5b6000610ab5611278565b11610b28576040517f08c379a00000000000000000000000000000000000000000000000000000000081526004018080602001828103825260148152602001807f4e6f20666f756e64207061727469636970616e7400000000000000000000000081525060200191505060405180910390fd5b600560085481548110610b3757fe5b9060005260206000200160009054906101000a900473ffffffffffffffffffffffffffffffffffffffff16905090565b600060149054906101000a900460ff1615610bea576040517f08c379a00000000000000000000000000000000000000000000000000000000081526004018080602001828103825260108152602001807f5061757361626c653a207061757365640000000000000000000000000000000081525060200191505060405180910390fd5b60025460058054905010610c49576040517f08c379a000000000000000000000000000000000000000000000000000000000815260040180806020018281038252602d815260200180611f48602d913960400191505060405180910390fd5b6040518060200160405280600081525080519060200120600660003373ffffffffffffffffffffffffffffffffffffffff1673ffffffffffffffffffffffffffffffffffffffff1681526020019081526020016000206000016040518082805460018160011615610100020316600290048015610cfd5780601f10610cdb576101008083540402835291820191610cfd565b820191906000526020600020905b815481529060010190602001808311610ce9575b5050915050604051809103902014610d60576040517f08c379a000000000000000000000000000000000000000000000000000000000815260040180806020018281038252602d815260200180611ece602d913960400191505060405180910390fd5b6005339080600181540180825580915050600190039060005260206000200160009091909190916101000a81548173ffffffffffffffffffffffffffffffffffffffff021916908373ffffffffffffffffffffffffffffffffffffffff16021790555080600660003373ffffffffffffffffffffffffffffffffffffffff1673ffffffffffffffffffffffffffffffffffffffff1681526020019081526020016000206000019080519060200190610e19929190611e28565b5050565b60006040518060200160405280600081525080519060200120600660008473ffffffffffffffffffffffffffffffffffffffff1673ffffffffffffffffffffffffffffffffffffffff1681526020019081526020016000206000016040518082805460018160011615610100020316600290048015610ed35780601f10610eb1576101008083540402835291820191610ed3565b820191906000526020600020905b815481529060010190602001808311610ebf575b5050915050604051809103902014159050919050565b600181565b610ef6611d16565b73ffffffffffffffffffffffffffffffffffffffff166000809054906101000a900473ffffffffffffffffffffffffffffffffffffffff1673ffffffffffffffffffffffffffffffffffffffff1614610fb7576040517f08c379a00000000000000000000000000000000000000000000000000000000081526004018080602001828103825260208152602001807f4f776e61626c653a2063616c6c6572206973206e6f7420746865206f776e657281525060200191505060405180910390fd5b600060149054906101000a900460ff161561103a576040517f08c379a00000000000000000000000000000000000000000000000000000000081526004018080602001828103825260108152602001807f5061757361626c653a207061757365640000000000000000000000000000000081525060200191505060405180910390fd5b6000611044611278565b11156110d0576000806000905060008090505b6005805490508110156110c55760006110a66005838154811061107657fe5b9060005260206000200160009054906101000a900473ffffffffffffffffffffffffffffffffffffffff166116c2565b9050828111156110b7578193508092505b508080600101915050611057565b508160088190555050505b6110d8611d1e565b565b60008060149054906101000a900460ff16905090565b6110f8611d16565b73ffffffffffffffffffffffffffffffffffffffff166000809054906101000a900473ffffffffffffffffffffffffffffffffffffffff1673ffffffffffffffffffffffffffffffffffffffff16146111b9576040517f08c379a00000000000000000000000000000000000000000000000000000000081526004018080602001828103825260208152602001807f4f776e61626c653a2063616c6c6572206973206e6f7420746865206f776e657281525060200191505060405180910390fd5b600073ffffffffffffffffffffffffffffffffffffffff166000809054906101000a900473ffffffffffffffffffffffffffffffffffffffff1673ffffffffffffffffffffffffffffffffffffffff167f8be0079c531659141344cd1fd0a4f28419497f9722a3daafe3b4186f6b6457e060405160405180910390a360008060006101000a81548173ffffffffffffffffffffffffffffffffffffffff021916908373ffffffffffffffffffffffffffffffffffffffff160217905550565b6000600580549050905090565b60078054600181600116156101000203166002900480601f01602080910402602001604051908101604052809291908181526020018280546001816001161561010002031660029004801561131b5780601f106112f05761010080835404028352916020019161131b565b820191906000526020600020905b8154815290600101906020018083116112fe57829003601f168201915b505050505081565b600081565b60008060009054906101000a900473ffffffffffffffffffffffffffffffffffffffff16905090565b60085481565b600061136233610e1d565b905090565b6040518060200160405280600081525080519060200120600660003373ffffffffffffffffffffffffffffffffffffffff1673ffffffffffffffffffffffffffffffffffffffff168152602001908152602001600020600001604051808280546001816001161561010002031660029004801561141b5780601f106113f957610100808354040283529182019161141b565b820191906000526020600020905b815481529060010190602001808311611407575b50509150506040518091039020141561147f576040517f08c379a0000000000000000000000000000000000000000000000000000000008152600401808060200182810382526027815260200180611f216027913960400191505060405180910390fd5b600060149054906101000a900460ff1615611502576040517f08c379a00000000000000000000000000000000000000000000000000000000081526004018080602001828103825260108152602001807f5061757361626c653a207061757365640000000000000000000000000000000081525060200191505060405180910390fd5b6000600660003373ffffffffffffffffffffffffffffffffffffffff1673ffffffffffffffffffffffffffffffffffffffff16815260200190815260200160002060010160016002811061155257fe5b0154146115c7576040517f08c379a00000000000000000000000000000000000000000000000000000000081526004018080602001828103825260168152602001807f596f752063616e206f6e6c79206c696b65206f6e63650000000000000000000081525060200191505060405180910390fd5b6001600660003373ffffffffffffffffffffffffffffffffffffffff1673ffffffffffffffffffffffffffffffffffffffff16815260200190815260200160002060010160016002811061161757fe5b0181905550565b60025481565b60018054600181600116156101000203166002900480601f0160208091040260200160405190810160405280929190818152602001828054600181600116156101000203166002900480156116ba5780601f1061168f576101008083540402835291602001916116ba565b820191906000526020600020905b81548152906001019060200180831161169d57829003601f168201915b505050505081565b6000600360010154600660008473ffffffffffffffffffffffffffffffffffffffff1673ffffffffffffffffffffffffffffffffffffffff16815260200190815260200160002060010160016002811061171857fe5b015402600360000154600660008573ffffffffffffffffffffffffffffffffffffffff1673ffffffffffffffffffffffffffffffffffffffff16815260200190815260200160002060010160006002811061176f57fe5b015402019050919050565b6006602052806000526040600020600091509050806000018054600181600116156101000203166002900480601f0160208091040260200160405190810160405280929190818152602001828054600181600116156101000203166002900480156118265780601f106117fb57610100808354040283529160200191611826565b820191906000526020600020905b81548152906001019060200180831161180957829003601f168201915b5050505050905081565b600061183b336116c2565b905090565b611848611d16565b73ffffffffffffffffffffffffffffffffffffffff166000809054906101000a900473ffffffffffffffffffffffffffffffffffffffff1673ffffffffffffffffffffffffffffffffffffffff1614611909576040517f08c379a00000000000000000000000000000000000000000000000000000000081526004018080602001828103825260208152602001807f4f776e61626c653a2063616c6c6572206973206e6f7420746865206f776e657281525060200191505060405180910390fd5b600073ffffffffffffffffffffffffffffffffffffffff168173ffffffffffffffffffffffffffffffffffffffff16141561198f576040517f08c379a0000000000000000000000000000000000000000000000000000000008152600401808060200182810382526026815260200180611efb6026913960400191505060405180910390fd5b8073ffffffffffffffffffffffffffffffffffffffff166000809054906101000a900473ffffffffffffffffffffffffffffffffffffffff1673ffffffffffffffffffffffffffffffffffffffff167f8be0079c531659141344cd1fd0a4f28419497f9722a3daafe3b4186f6b6457e060405160405180910390a3806000806101000a81548173ffffffffffffffffffffffffffffffffffffffff021916908373ffffffffffffffffffffffffffffffffffffffff16021790555050565b6040518060200160405280600081525080519060200120600660003373ffffffffffffffffffffffffffffffffffffffff1673ffffffffffffffffffffffffffffffffffffffff1681526020019081526020016000206000016040518082805460018160011615610100020316600290048015611b015780601f10611adf576101008083540402835291820191611b01565b820191906000526020600020905b815481529060010190602001808311611aed575b505091505060405180910390201415611b65576040517f08c379a0000000000000000000000000000000000000000000000000000000008152600401808060200182810382526027815260200180611f216027913960400191505060405180910390fd5b600060149054906101000a900460ff1615611be8576040517f08c379a00000000000000000000000000000000000000000000000000000000081526004018080602001828103825260108152602001807f5061757361626c653a207061757365640000000000000000000000000000000081525060200191505060405180910390fd5b6000600660003373ffffffffffffffffffffffffffffffffffffffff1673ffffffffffffffffffffffffffffffffffffffff168152602001908152602001600020600101600060028110611c3857fe5b015414611cad576040517f08c379a00000000000000000000000000000000000000000000000000000000081526004018080602001828103825260198152602001807f596f752063616e206f6e6c792072657477656574206f6e63650000000000000081525060200191505060405180910390fd5b6001600660003373ffffffffffffffffffffffffffffffffffffffff1673ffffffffffffffffffffffffffffffffffffffff168152602001908152602001600020600101600060028110611cfd57fe5b0181905550565b60038060000154908060010154905082565b600033905090565b600060149054906101000a900460ff1615611da1576040517f08c379a00000000000000000000000000000000000000000000000000000000081526004018080602001828103825260108152602001807f5061757361626c653a207061757365640000000000000000000000000000000081525060200191505060405180910390fd5b6001600060146101000a81548160ff0219169083151502179055507f62e78cea01bee320cd4e420270b5ea74000d11b0c9f74754ebdbfc544b05a258611de5611d16565b604051808273ffffffffffffffffffffffffffffffffffffffff1673ffffffffffffffffffffffffffffffffffffffff16815260200191505060405180910390a1565b828054600181600116156101000203166002900490600052602060002090601f016020900481019282601f10611e6957805160ff1916838001178555611e97565b82800160010185558215611e97579182015b82811115611e96578251825591602001919060010190611e7b565b5b509050611ea49190611ea8565b5090565b611eca91905b80821115611ec6576000816000905550600101611eae565b5090565b9056fe596f75206861766520616c72656164792076616c69646174656420796f75722070617274696369706174696f6e4f776e61626c653a206e6577206f776e657220697320746865207a65726f2061646472657373596f75206e65656420746f2076616c696461746520796f75722070617274696369706174696f6e546865206d6178696d756d206e756d626572206f66207061727469636970616e74732069732072656163686564a2646970667358221220bf3d04c47c2bf40dbb1adb5386cd906ac84e4625e3aef4ffe554f66a60fb2d7c64736f6c63430006050033",
  "compiler": {
    "name": "solc",
    "version": "0.6.5+commit.f956cc89.Emscripten.clang",
    "optimizer": {
      "enabled": false,
      "runs": 200
    },
    "evmVersion": "petersburg"
  }
}