{
  "fileName": "GiveAway.sol",
  "contractName": "GiveAway",
  "source": "// contracts/GiveAway.sol\n// SPDX-License-Identifier: Apache-2.0\npragma solidity >=0.6.0 <0.8.0;\nimport \"@openzeppelin/contracts/access/Ownable.sol\";\nimport \"@openzeppelin/contracts/utils/Pausable.sol\";\ninterface IPOSDAORandom {\n    function collectRoundLength() external view returns(uint256);\n    function currentSeed() external view returns(uint256);\n    function nextCommitPhaseStartBlock() external view returns(uint256);\n    function nextRevealPhaseStartBlock() external view returns(uint256);\n}\ncontract GiveAway is Ownable, Pausable{\n    uint public constant RETWEET_INDEX = 0;\n    uint public constant LIKE_INDEX = 1;\n    struct Rules {\n        uint256 scoreRetweet;\n        uint256 scoreLike;\n    }\n    struct Participant {\n        bytes id;\n        uint[2] status;\n    }\n    string public _name;\n    uint256 public _maxParticipants;\n    Rules public _rules;\n    address [] _listParticipants;\n    mapping(address => Participant) public _participants;\n    mapping(uint256 => uint256) public participantsScores;\n    string public _tweetLink;\n    uint256 public winnerIndex;\n    IPOSDAORandom private _posdaoRandomContract; // address of RandomAuRa contract\n    modifier onlyRegisteredUser()\n    {\n        require(keccak256(_participants[msg.sender].id) != keccak256(bytes(\"\")), \"You need to validate your participation\");\n        _;\n    }\n    constructor (IPOSDAORandom randomContract, string memory name, string memory tweetLink, uint256 maxParticipants, uint256 scoreRetweet, uint256 scoreLike) public payable {\n        require(msg.value>0);\n        require(randomContract != IPOSDAORandom(0));\n        _posdaoRandomContract = randomContract;\n        _maxParticipants = maxParticipants;\n        _name = name;\n        _rules = Rules(scoreRetweet, scoreLike);\n        _tweetLink = tweetLink;\n    }\n    function participate(string memory id) public payable whenNotPaused{\n        require(_listParticipants.length < _maxParticipants, \"The maximum number of participants is reached\");\n        require(keccak256(_participants[msg.sender].id) == keccak256(bytes(\"\")), \"You have already validated your participation\");\n        _listParticipants.push(msg.sender);\n        _participants[msg.sender].id = bytes(id) ;\n    }\n    function retweet() public payable onlyRegisteredUser whenNotPaused{\n        require(_participants[msg.sender].status[RETWEET_INDEX] == 0, \"You can only retweet once\");\n        _participants[msg.sender].status[RETWEET_INDEX] = 1;\n    }\n    function like() public payable onlyRegisteredUser whenNotPaused {\n        require(_participants[msg.sender].status[LIKE_INDEX] == 0, \"You can only like once\");\n        _participants[msg.sender].status[LIKE_INDEX] = 1;\n    }\n    function getMyScore() public view returns (uint256) {\n        return getScore(msg.sender);\n    }\n    function getScore(address participant) public view returns (uint256) {\n        return _participants[participant].status[RETWEET_INDEX] * _rules.scoreRetweet\n        + _participants[participant].status[LIKE_INDEX] * _rules.scoreLike;\n    }\n    function isUserParticipating(address participant) public view returns (bool){\n        return keccak256(_participants[participant].id) != keccak256(bytes(\"\"));\n    }\n    function amIParticipating() public view returns (bool){\n        return isUserParticipating(msg.sender);\n    }\n    function numberOfParticipants() public view returns (uint256){\n        return _listParticipants.length;\n    }\n    function close() public payable onlyOwner whenNotPaused {\n        uint256 seed = _posdaoRandomContract.currentSeed();\n        uint256 scoreWinner = 0;\n        for (uint i = 0; i < _listParticipants.length; i++) {\n            uint currentScore = getScore(_listParticipants[i]);\n            participantsScores[i] = currentScore;\n            if(currentScore >= scoreWinner){\n                scoreWinner = currentScore;\n            }\n        }\n        uint256[] storage winnersCandidates;\n        for (uint i = 0; i < _listParticipants.length; i++) {\n            if(participantsScores[i]==scoreWinner){\n                winnersCandidates.push(i);\n            }\n        }\n        winnerIndex = winnersCandidates[seed%winnersCandidates.length];\n        _pause();\n    }\n    function getWinnerId() public view whenPaused returns(string memory){\n        require(numberOfParticipants()>0, \"No found participant\");\n        return string(_participants[_listParticipants[winnerIndex]].id);\n    }\n    function getWinnerAddress() public view whenPaused returns(address){\n        require(numberOfParticipants()>0, \"No found participant\");\n        return _listParticipants[winnerIndex];\n    }\n    function getSeedForCurrentPhase() public view returns (uint256){\n        return _posdaoRandomContract.currentSeed();\n    }\n    function getSeedModuloX(uint x) public view returns (uint256){\n        uint256 seed = _posdaoRandomContract.currentSeed();\n        return seed % x;\n    }\n    function getNextCommitPhaseStartBlock() public view returns(uint256){\n        return _posdaoRandomContract.nextCommitPhaseStartBlock();\n    }\n    function getNextRevealPhaseStartBlock() public view returns(uint256){\n        return _posdaoRandomContract.nextRevealPhaseStartBlock();\n    }\n}\n",
  "sourcePath": "contracts/GiveAway.sol",
  "abi": [
    {
      "inputs": [
        {
          "internalType": "contract IPOSDAORandom",
          "name": "randomContract",
          "type": "address"
        },
        {
          "internalType": "string",
          "name": "name",
          "type": "string"
        },
        {
          "internalType": "string",
          "name": "tweetLink",
          "type": "string"
        },
        {
          "internalType": "uint256",
          "name": "maxParticipants",
          "type": "uint256"
        },
        {
          "internalType": "uint256",
          "name": "scoreRetweet",
          "type": "uint256"
        },
        {
          "internalType": "uint256",
          "name": "scoreLike",
          "type": "uint256"
        }
      ],
      "stateMutability": "payable",
      "type": "constructor"
    },
    {
      "anonymous": false,
      "inputs": [
        {
          "indexed": true,
          "internalType": "address",
          "name": "previousOwner",
          "type": "address"
        },
        {
          "indexed": true,
          "internalType": "address",
          "name": "newOwner",
          "type": "address"
        }
      ],
      "name": "OwnershipTransferred",
      "type": "event"
    },
    {
      "anonymous": false,
      "inputs": [
        {
          "indexed": false,
          "internalType": "address",
          "name": "account",
          "type": "address"
        }
      ],
      "name": "Paused",
      "type": "event"
    },
    {
      "anonymous": false,
      "inputs": [
        {
          "indexed": false,
          "internalType": "address",
          "name": "account",
          "type": "address"
        }
      ],
      "name": "Unpaused",
      "type": "event"
    },
    {
      "inputs": [],
      "name": "LIKE_INDEX",
      "outputs": [
        {
          "internalType": "uint256",
          "name": "",
          "type": "uint256"
        }
      ],
      "stateMutability": "view",
      "type": "function"
    },
    {
      "inputs": [],
      "name": "RETWEET_INDEX",
      "outputs": [
        {
          "internalType": "uint256",
          "name": "",
          "type": "uint256"
        }
      ],
      "stateMutability": "view",
      "type": "function"
    },
    {
      "inputs": [],
      "name": "_maxParticipants",
      "outputs": [
        {
          "internalType": "uint256",
          "name": "",
          "type": "uint256"
        }
      ],
      "stateMutability": "view",
      "type": "function"
    },
    {
      "inputs": [],
      "name": "_name",
      "outputs": [
        {
          "internalType": "string",
          "name": "",
          "type": "string"
        }
      ],
      "stateMutability": "view",
      "type": "function"
    },
    {
      "inputs": [
        {
          "internalType": "address",
          "name": "",
          "type": "address"
        }
      ],
      "name": "_participants",
      "outputs": [
        {
          "internalType": "bytes",
          "name": "id",
          "type": "bytes"
        }
      ],
      "stateMutability": "view",
      "type": "function"
    },
    {
      "inputs": [],
      "name": "_rules",
      "outputs": [
        {
          "internalType": "uint256",
          "name": "scoreRetweet",
          "type": "uint256"
        },
        {
          "internalType": "uint256",
          "name": "scoreLike",
          "type": "uint256"
        }
      ],
      "stateMutability": "view",
      "type": "function"
    },
    {
      "inputs": [],
      "name": "_tweetLink",
      "outputs": [
        {
          "internalType": "string",
          "name": "",
          "type": "string"
        }
      ],
      "stateMutability": "view",
      "type": "function"
    },
    {
      "inputs": [],
      "name": "amIParticipating",
      "outputs": [
        {
          "internalType": "bool",
          "name": "",
          "type": "bool"
        }
      ],
      "stateMutability": "view",
      "type": "function"
    },
    {
      "inputs": [],
      "name": "close",
      "outputs": [],
      "stateMutability": "payable",
      "type": "function"
    },
    {
      "inputs": [],
      "name": "getMyScore",
      "outputs": [
        {
          "internalType": "uint256",
          "name": "",
          "type": "uint256"
        }
      ],
      "stateMutability": "view",
      "type": "function"
    },
    {
      "inputs": [],
      "name": "getNextCommitPhaseStartBlock",
      "outputs": [
        {
          "internalType": "uint256",
          "name": "",
          "type": "uint256"
        }
      ],
      "stateMutability": "view",
      "type": "function"
    },
    {
      "inputs": [],
      "name": "getNextRevealPhaseStartBlock",
      "outputs": [
        {
          "internalType": "uint256",
          "name": "",
          "type": "uint256"
        }
      ],
      "stateMutability": "view",
      "type": "function"
    },
    {
      "inputs": [
        {
          "internalType": "address",
          "name": "participant",
          "type": "address"
        }
      ],
      "name": "getScore",
      "outputs": [
        {
          "internalType": "uint256",
          "name": "",
          "type": "uint256"
        }
      ],
      "stateMutability": "view",
      "type": "function"
    },
    {
      "inputs": [],
      "name": "getSeedForCurrentPhase",
      "outputs": [
        {
          "internalType": "uint256",
          "name": "",
          "type": "uint256"
        }
      ],
      "stateMutability": "view",
      "type": "function"
    },
    {
      "inputs": [
        {
          "internalType": "uint256",
          "name": "x",
          "type": "uint256"
        }
      ],
      "name": "getSeedModuloX",
      "outputs": [
        {
          "internalType": "uint256",
          "name": "",
          "type": "uint256"
        }
      ],
      "stateMutability": "view",
      "type": "function"
    },
    {
      "inputs": [],
      "name": "getWinnerAddress",
      "outputs": [
        {
          "internalType": "address",
          "name": "",
          "type": "address"
        }
      ],
      "stateMutability": "view",
      "type": "function"
    },
    {
      "inputs": [],
      "name": "getWinnerId",
      "outputs": [
        {
          "internalType": "string",
          "name": "",
          "type": "string"
        }
      ],
      "stateMutability": "view",
      "type": "function"
    },
    {
      "inputs": [
        {
          "internalType": "address",
          "name": "participant",
          "type": "address"
        }
      ],
      "name": "isUserParticipating",
      "outputs": [
        {
          "internalType": "bool",
          "name": "",
          "type": "bool"
        }
      ],
      "stateMutability": "view",
      "type": "function"
    },
    {
      "inputs": [],
      "name": "like",
      "outputs": [],
      "stateMutability": "payable",
      "type": "function"
    },
    {
      "inputs": [],
      "name": "numberOfParticipants",
      "outputs": [
        {
          "internalType": "uint256",
          "name": "",
          "type": "uint256"
        }
      ],
      "stateMutability": "view",
      "type": "function"
    },
    {
      "inputs": [],
      "name": "owner",
      "outputs": [
        {
          "internalType": "address",
          "name": "",
          "type": "address"
        }
      ],
      "stateMutability": "view",
      "type": "function"
    },
    {
      "inputs": [
        {
          "internalType": "uint256",
          "name": "",
          "type": "uint256"
        }
      ],
      "name": "participantsScores",
      "outputs": [
        {
          "internalType": "uint256",
          "name": "",
          "type": "uint256"
        }
      ],
      "stateMutability": "view",
      "type": "function"
    },
    {
      "inputs": [
        {
          "internalType": "string",
          "name": "id",
          "type": "string"
        }
      ],
      "name": "participate",
      "outputs": [],
      "stateMutability": "payable",
      "type": "function"
    },
    {
      "inputs": [],
      "name": "paused",
      "outputs": [
        {
          "internalType": "bool",
          "name": "",
          "type": "bool"
        }
      ],
      "stateMutability": "view",
      "type": "function"
    },
    {
      "inputs": [],
      "name": "renounceOwnership",
      "outputs": [],
      "stateMutability": "nonpayable",
      "type": "function"
    },
    {
      "inputs": [],
      "name": "retweet",
      "outputs": [],
      "stateMutability": "payable",
      "type": "function"
    },
    {
      "inputs": [
        {
          "internalType": "address",
          "name": "newOwner",
          "type": "address"
        }
      ],
      "name": "transferOwnership",
      "outputs": [],
      "stateMutability": "nonpayable",
      "type": "function"
    },
    {
      "inputs": [],
      "name": "winnerIndex",
      "outputs": [
        {
          "internalType": "uint256",
          "name": "",
          "type": "uint256"
        }
      ],
      "stateMutability": "view",
      "type": "function"
    }
  ],
  "bytecode": "0x6080604052604051620029a3380380620029a3833981810160405260c08110156200002957600080fd5b8101908080519060200190929190805160405193929190846401000000008211156200005457600080fd5b838201915060208201858111156200006b57600080fd5b82518660018202830111640100000000821117156200008957600080fd5b8083526020830192505050908051906020019080838360005b83811015620000bf578082015181840152602081019050620000a2565b50505050905090810190601f168015620000ed5780820380516001836020036101000a031916815260200191505b50604052602001805160405193929190846401000000008211156200011157600080fd5b838201915060208201858111156200012857600080fd5b82518660018202830111640100000000821117156200014657600080fd5b8083526020830192505050908051906020019080838360005b838110156200017c5780820151818401526020810190506200015f565b50505050905090810190601f168015620001aa5780820380516001836020036101000a031916815260200191505b506040526020018051906020019092919080519060200190929190805190602001909291905050506000620001e46200039960201b60201c565b9050806000806101000a81548173ffffffffffffffffffffffffffffffffffffffff021916908373ffffffffffffffffffffffffffffffffffffffff1602179055508073ffffffffffffffffffffffffffffffffffffffff16600073ffffffffffffffffffffffffffffffffffffffff167f8be0079c531659141344cd1fd0a4f28419497f9722a3daafe3b4186f6b6457e060405160405180910390a35060008060146101000a81548160ff02191690831515021790555060003411620002aa57600080fd5b600073ffffffffffffffffffffffffffffffffffffffff168673ffffffffffffffffffffffffffffffffffffffff161415620002e557600080fd5b85600a60006101000a81548173ffffffffffffffffffffffffffffffffffffffff021916908373ffffffffffffffffffffffffffffffffffffffff16021790555082600281905550846001908051906020019062000345929190620003a1565b506040518060400160405280838152602001828152506003600082015181600001556020820151816001015590505083600890805190602001906200038c929190620003a1565b5050505050505062000450565b600033905090565b828054600181600116156101000203166002900490600052602060002090601f016020900481019282601f10620003e457805160ff191683800117855562000415565b8280016001018555821562000415579182015b8281111562000414578251825591602001919060010190620003f7565b5b50905062000424919062000428565b5090565b6200044d91905b80821115620004495760008160009055506001016200042f565b5090565b90565b61254380620004606000396000f3fe6080604052600436106101b75760003560e01c80638a258aa8116100ec578063d47875d01161008a578063f1bf4ac411610064578063f1bf4ac4146108c8578063f2fde38b14610917578063f578ebaa14610968578063f60e49b514610972576101b7565b8063d47875d01461076e578063d5fedc50146107d3578063f1599f2c1461089d576101b7565b80639f89e755116100c65780639f89e7551461067a578063a523b88a146106a9578063b5e9757c146106b3578063d28d8852146106de576101b7565b80638a258aa8146105cd5780638da5cb5b146105f85780638f00cbfa1461064f576101b7565b80635c975abb116101595780637417040e116101335780637417040e146104985780637c1f9dc5146104c357806380347a541461055357806388782c8c1461057e576101b7565b80635c975abb1461042757806361207ce114610456578063715018a614610481576101b7565b806327b9d6f71161019557806327b9d6f71461035e57806327c87c33146103c75780632c044a25146103f257806343d726d61461041d576101b7565b80630aea6806146101bc57806310a37c261461024c5780631d27769f146102a3575b600080fd5b3480156101c857600080fd5b506101d16109a4565b6040518080602001828103825283818151815260200191508051906020019080838360005b838110156102115780820151818401526020810190506101f6565b50505050905090810190601f16801561023e5780820380516001836020036101000a031916815260200191505b509250505060405180910390f35b34801561025857600080fd5b50610261610bbe565b604051808273ffffffffffffffffffffffffffffffffffffffff1673ffffffffffffffffffffffffffffffffffffffff16815260200191505060405180910390f35b61035c600480360360208110156102b957600080fd5b81019080803590602001906401000000008111156102d657600080fd5b8201836020820111156102e857600080fd5b8035906020019184600183028401116401000000008311171561030a57600080fd5b91908080601f016020809104026020016040519081016040528093929190818152602001838380828437600081840152601f19601f820116905080830192505050505050509192919290505050610cfd565b005b34801561036a57600080fd5b506103ad6004803603602081101561038157600080fd5b81019080803573ffffffffffffffffffffffffffffffffffffffff169060200190929190505050610fb3565b604051808215151515815260200191505060405180910390f35b3480156103d357600080fd5b506103dc61107f565b6040518082815260200191505060405180910390f35b3480156103fe57600080fd5b50610407611084565b6040518082815260200191505060405180910390f35b61042561112e565b005b34801561043357600080fd5b5061043c61144d565b604051808215151515815260200191505060405180910390f35b34801561046257600080fd5b5061046b611463565b6040518082815260200191505060405180910390f35b34801561048d57600080fd5b5061049661150d565b005b3480156104a457600080fd5b506104ad611695565b6040518082815260200191505060405180910390f35b3480156104cf57600080fd5b506104d86116a2565b6040518080602001828103825283818151815260200191508051906020019080838360005b838110156105185780820151818401526020810190506104fd565b50505050905090810190601f1680156105455780820380516001836020036101000a031916815260200191505b509250505060405180910390f35b34801561055f57600080fd5b50610568611740565b6040518082815260200191505060405180910390f35b34801561058a57600080fd5b506105b7600480360360208110156105a157600080fd5b81019080803590602001909291905050506117ea565b6040518082815260200191505060405180910390f35b3480156105d957600080fd5b506105e2611802565b6040518082815260200191505060405180910390f35b34801561060457600080fd5b5061060d611807565b604051808273ffffffffffffffffffffffffffffffffffffffff1673ffffffffffffffffffffffffffffffffffffffff16815260200191505060405180910390f35b34801561065b57600080fd5b50610664611830565b6040518082815260200191505060405180910390f35b34801561068657600080fd5b5061068f611836565b604051808215151515815260200191505060405180910390f35b6106b1611846565b005b3480156106bf57600080fd5b506106c8611afd565b6040518082815260200191505060405180910390f35b3480156106ea57600080fd5b506106f3611b03565b6040518080602001828103825283818151815260200191508051906020019080838360005b83811015610733578082015181840152602081019050610718565b50505050905090810190601f1680156107605780820380516001836020036101000a031916815260200191505b509250505060405180910390f35b34801561077a57600080fd5b506107bd6004803603602081101561079157600080fd5b81019080803573ffffffffffffffffffffffffffffffffffffffff169060200190929190505050611ba1565b6040518082815260200191505060405180910390f35b3480156107df57600080fd5b50610822600480360360208110156107f657600080fd5b81019080803573ffffffffffffffffffffffffffffffffffffffff169060200190929190505050611c59565b6040518080602001828103825283818151815260200191508051906020019080838360005b83811015610862578082015181840152602081019050610847565b50505050905090810190601f16801561088f5780820380516001836020036101000a031916815260200191505b509250505060405180910390f35b3480156108a957600080fd5b506108b2611d0f565b6040518082815260200191505060405180910390f35b3480156108d457600080fd5b50610901600480360360208110156108eb57600080fd5b8101908080359060200190929190505050611d1f565b6040518082815260200191505060405180910390f35b34801561092357600080fd5b506109666004803603602081101561093a57600080fd5b81019080803573ffffffffffffffffffffffffffffffffffffffff169060200190929190505050611dd9565b005b610970611fe6565b005b34801561097e57600080fd5b5061098761229d565b604051808381526020018281526020019250505060405180910390f35b6060600060149054906101000a900460ff16610a28576040517f08c379a00000000000000000000000000000000000000000000000000000000081526004018080602001828103825260148152602001807f5061757361626c653a206e6f742070617573656400000000000000000000000081525060200191505060405180910390fd5b6000610a32611695565b11610aa5576040517f08c379a00000000000000000000000000000000000000000000000000000000081526004018080602001828103825260148152602001807f4e6f20666f756e64207061727469636970616e7400000000000000000000000081525060200191505060405180910390fd5b60066000600560095481548110610ab857fe5b9060005260206000200160009054906101000a900473ffffffffffffffffffffffffffffffffffffffff1673ffffffffffffffffffffffffffffffffffffffff1673ffffffffffffffffffffffffffffffffffffffff1681526020019081526020016000206000018054600181600116156101000203166002900480601f016020809104026020016040519081016040528092919081815260200182805460018160011615610100020316600290048015610bb45780601f10610b8957610100808354040283529160200191610bb4565b820191906000526020600020905b815481529060010190602001808311610b9757829003601f168201915b5050505050905090565b60008060149054906101000a900460ff16610c41576040517f08c379a00000000000000000000000000000000000000000000000000000000081526004018080602001828103825260148152602001807f5061757361626c653a206e6f742070617573656400000000000000000000000081525060200191505060405180910390fd5b6000610c4b611695565b11610cbe576040517f08c379a00000000000000000000000000000000000000000000000000000000081526004018080602001828103825260148152602001807f4e6f20666f756e64207061727469636970616e7400000000000000000000000081525060200191505060405180910390fd5b600560095481548110610ccd57fe5b9060005260206000200160009054906101000a900473ffffffffffffffffffffffffffffffffffffffff16905090565b600060149054906101000a900460ff1615610d80576040517f08c379a00000000000000000000000000000000000000000000000000000000081526004018080602001828103825260108152602001807f5061757361626c653a207061757365640000000000000000000000000000000081525060200191505060405180910390fd5b60025460058054905010610ddf576040517f08c379a000000000000000000000000000000000000000000000000000000000815260040180806020018281038252602d8152602001806124e1602d913960400191505060405180910390fd5b6040518060200160405280600081525080519060200120600660003373ffffffffffffffffffffffffffffffffffffffff1673ffffffffffffffffffffffffffffffffffffffff1681526020019081526020016000206000016040518082805460018160011615610100020316600290048015610e935780601f10610e71576101008083540402835291820191610e93565b820191906000526020600020905b815481529060010190602001808311610e7f575b5050915050604051809103902014610ef6576040517f08c379a000000000000000000000000000000000000000000000000000000000815260040180806020018281038252602d815260200180612467602d913960400191505060405180910390fd5b6005339080600181540180825580915050600190039060005260206000200160009091909190916101000a81548173ffffffffffffffffffffffffffffffffffffffff021916908373ffffffffffffffffffffffffffffffffffffffff16021790555080600660003373ffffffffffffffffffffffffffffffffffffffff1673ffffffffffffffffffffffffffffffffffffffff1681526020019081526020016000206000019080519060200190610faf9291906123c1565b5050565b60006040518060200160405280600081525080519060200120600660008473ffffffffffffffffffffffffffffffffffffffff1673ffffffffffffffffffffffffffffffffffffffff16815260200190815260200160002060000160405180828054600181600116156101000203166002900480156110695780601f10611047576101008083540402835291820191611069565b820191906000526020600020905b815481529060010190602001808311611055575b5050915050604051809103902014159050919050565b600181565b6000600a60009054906101000a900473ffffffffffffffffffffffffffffffffffffffff1673ffffffffffffffffffffffffffffffffffffffff1663832206266040518163ffffffff1660e01b815260040160206040518083038186803b1580156110ee57600080fd5b505afa158015611102573d6000803e3d6000fd5b505050506040513d602081101561111857600080fd5b8101908080519060200190929190505050905090565b6111366122af565b73ffffffffffffffffffffffffffffffffffffffff166000809054906101000a900473ffffffffffffffffffffffffffffffffffffffff1673ffffffffffffffffffffffffffffffffffffffff16146111f7576040517f08c379a00000000000000000000000000000000000000000000000000000000081526004018080602001828103825260208152602001807f4f776e61626c653a2063616c6c6572206973206e6f7420746865206f776e657281525060200191505060405180910390fd5b600060149054906101000a900460ff161561127a576040517f08c379a00000000000000000000000000000000000000000000000000000000081526004018080602001828103825260108152602001807f5061757361626c653a207061757365640000000000000000000000000000000081525060200191505060405180910390fd5b6000600a60009054906101000a900473ffffffffffffffffffffffffffffffffffffffff1673ffffffffffffffffffffffffffffffffffffffff1663832206266040518163ffffffff1660e01b815260040160206040518083038186803b1580156112e457600080fd5b505afa1580156112f8573d6000803e3d6000fd5b505050506040513d602081101561130e57600080fd5b81019080805190602001909291905050509050600080905060008090505b6005805490508110156113ae57600061137b6005838154811061134b57fe5b9060005260206000200160009054906101000a900473ffffffffffffffffffffffffffffffffffffffff16611ba1565b90508060076000848152602001908152602001600020819055508281106113a0578092505b50808060010191505061132c565b50600080600090505b60058054905081101561141557826007600083815260200190815260200160002054141561140857818190806001815401808255809150506001900390600052602060002001600090919091909150555b80806001019150506113b7565b50808180549050848161142457fe5b068154811061142f57fe5b90600052602060002001546009819055506114486122b7565b505050565b60008060149054906101000a900460ff16905090565b6000600a60009054906101000a900473ffffffffffffffffffffffffffffffffffffffff1673ffffffffffffffffffffffffffffffffffffffff1663c64c20646040518163ffffffff1660e01b815260040160206040518083038186803b1580156114cd57600080fd5b505afa1580156114e1573d6000803e3d6000fd5b505050506040513d60208110156114f757600080fd5b8101908080519060200190929190505050905090565b6115156122af565b73ffffffffffffffffffffffffffffffffffffffff166000809054906101000a900473ffffffffffffffffffffffffffffffffffffffff1673ffffffffffffffffffffffffffffffffffffffff16146115d6576040517f08c379a00000000000000000000000000000000000000000000000000000000081526004018080602001828103825260208152602001807f4f776e61626c653a2063616c6c6572206973206e6f7420746865206f776e657281525060200191505060405180910390fd5b600073ffffffffffffffffffffffffffffffffffffffff166000809054906101000a900473ffffffffffffffffffffffffffffffffffffffff1673ffffffffffffffffffffffffffffffffffffffff167f8be0079c531659141344cd1fd0a4f28419497f9722a3daafe3b4186f6b6457e060405160405180910390a360008060006101000a81548173ffffffffffffffffffffffffffffffffffffffff021916908373ffffffffffffffffffffffffffffffffffffffff160217905550565b6000600580549050905090565b60088054600181600116156101000203166002900480601f0160208091040260200160405190810160405280929190818152602001828054600181600116156101000203166002900480156117385780601f1061170d57610100808354040283529160200191611738565b820191906000526020600020905b81548152906001019060200180831161171b57829003601f168201915b505050505081565b6000600a60009054906101000a900473ffffffffffffffffffffffffffffffffffffffff1673ffffffffffffffffffffffffffffffffffffffff166378ab865d6040518163ffffffff1660e01b815260040160206040518083038186803b1580156117aa57600080fd5b505afa1580156117be573d6000803e3d6000fd5b505050506040513d60208110156117d457600080fd5b8101908080519060200190929190505050905090565b60076020528060005260406000206000915090505481565b600081565b60008060009054906101000a900473ffffffffffffffffffffffffffffffffffffffff16905090565b60095481565b600061184133610fb3565b905090565b6040518060200160405280600081525080519060200120600660003373ffffffffffffffffffffffffffffffffffffffff1673ffffffffffffffffffffffffffffffffffffffff16815260200190815260200160002060000160405180828054600181600116156101000203166002900480156118fa5780601f106118d85761010080835404028352918201916118fa565b820191906000526020600020905b8154815290600101906020018083116118e6575b50509150506040518091039020141561195e576040517f08c379a00000000000000000000000000000000000000000000000000000000081526004018080602001828103825260278152602001806124ba6027913960400191505060405180910390fd5b600060149054906101000a900460ff16156119e1576040517f08c379a00000000000000000000000000000000000000000000000000000000081526004018080602001828103825260108152602001807f5061757361626c653a207061757365640000000000000000000000000000000081525060200191505060405180910390fd5b6000600660003373ffffffffffffffffffffffffffffffffffffffff1673ffffffffffffffffffffffffffffffffffffffff168152602001908152602001600020600101600160028110611a3157fe5b015414611aa6576040517f08c379a00000000000000000000000000000000000000000000000000000000081526004018080602001828103825260168152602001807f596f752063616e206f6e6c79206c696b65206f6e63650000000000000000000081525060200191505060405180910390fd5b6001600660003373ffffffffffffffffffffffffffffffffffffffff1673ffffffffffffffffffffffffffffffffffffffff168152602001908152602001600020600101600160028110611af657fe5b0181905550565b60025481565b60018054600181600116156101000203166002900480601f016020809104026020016040519081016040528092919081815260200182805460018160011615610100020316600290048015611b995780601f10611b6e57610100808354040283529160200191611b99565b820191906000526020600020905b815481529060010190602001808311611b7c57829003601f168201915b505050505081565b6000600360010154600660008473ffffffffffffffffffffffffffffffffffffffff1673ffffffffffffffffffffffffffffffffffffffff168152602001908152602001600020600101600160028110611bf757fe5b015402600360000154600660008573ffffffffffffffffffffffffffffffffffffffff1673ffffffffffffffffffffffffffffffffffffffff168152602001908152602001600020600101600060028110611c4e57fe5b015402019050919050565b6006602052806000526040600020600091509050806000018054600181600116156101000203166002900480601f016020809104026020016040519081016040528092919081815260200182805460018160011615610100020316600290048015611d055780601f10611cda57610100808354040283529160200191611d05565b820191906000526020600020905b815481529060010190602001808311611ce857829003601f168201915b5050505050905081565b6000611d1a33611ba1565b905090565b600080600a60009054906101000a900473ffffffffffffffffffffffffffffffffffffffff1673ffffffffffffffffffffffffffffffffffffffff1663832206266040518163ffffffff1660e01b815260040160206040518083038186803b158015611d8a57600080fd5b505afa158015611d9e573d6000803e3d6000fd5b505050506040513d6020811015611db457600080fd5b81019080805190602001909291905050509050828181611dd057fe5b06915050919050565b611de16122af565b73ffffffffffffffffffffffffffffffffffffffff166000809054906101000a900473ffffffffffffffffffffffffffffffffffffffff1673ffffffffffffffffffffffffffffffffffffffff1614611ea2576040517f08c379a00000000000000000000000000000000000000000000000000000000081526004018080602001828103825260208152602001807f4f776e61626c653a2063616c6c6572206973206e6f7420746865206f776e657281525060200191505060405180910390fd5b600073ffffffffffffffffffffffffffffffffffffffff168173ffffffffffffffffffffffffffffffffffffffff161415611f28576040517f08c379a00000000000000000000000000000000000000000000000000000000081526004018080602001828103825260268152602001806124946026913960400191505060405180910390fd5b8073ffffffffffffffffffffffffffffffffffffffff166000809054906101000a900473ffffffffffffffffffffffffffffffffffffffff1673ffffffffffffffffffffffffffffffffffffffff167f8be0079c531659141344cd1fd0a4f28419497f9722a3daafe3b4186f6b6457e060405160405180910390a3806000806101000a81548173ffffffffffffffffffffffffffffffffffffffff021916908373ffffffffffffffffffffffffffffffffffffffff16021790555050565b6040518060200160405280600081525080519060200120600660003373ffffffffffffffffffffffffffffffffffffffff1673ffffffffffffffffffffffffffffffffffffffff168152602001908152602001600020600001604051808280546001816001161561010002031660029004801561209a5780601f1061207857610100808354040283529182019161209a565b820191906000526020600020905b815481529060010190602001808311612086575b5050915050604051809103902014156120fe576040517f08c379a00000000000000000000000000000000000000000000000000000000081526004018080602001828103825260278152602001806124ba6027913960400191505060405180910390fd5b600060149054906101000a900460ff1615612181576040517f08c379a00000000000000000000000000000000000000000000000000000000081526004018080602001828103825260108152602001807f5061757361626c653a207061757365640000000000000000000000000000000081525060200191505060405180910390fd5b6000600660003373ffffffffffffffffffffffffffffffffffffffff1673ffffffffffffffffffffffffffffffffffffffff1681526020019081526020016000206001016000600281106121d157fe5b015414612246576040517f08c379a00000000000000000000000000000000000000000000000000000000081526004018080602001828103825260198152602001807f596f752063616e206f6e6c792072657477656574206f6e63650000000000000081525060200191505060405180910390fd5b6001600660003373ffffffffffffffffffffffffffffffffffffffff1673ffffffffffffffffffffffffffffffffffffffff16815260200190815260200160002060010160006002811061229657fe5b0181905550565b60038060000154908060010154905082565b600033905090565b600060149054906101000a900460ff161561233a576040517f08c379a00000000000000000000000000000000000000000000000000000000081526004018080602001828103825260108152602001807f5061757361626c653a207061757365640000000000000000000000000000000081525060200191505060405180910390fd5b6001600060146101000a81548160ff0219169083151502179055507f62e78cea01bee320cd4e420270b5ea74000d11b0c9f74754ebdbfc544b05a25861237e6122af565b604051808273ffffffffffffffffffffffffffffffffffffffff1673ffffffffffffffffffffffffffffffffffffffff16815260200191505060405180910390a1565b828054600181600116156101000203166002900490600052602060002090601f016020900481019282601f1061240257805160ff1916838001178555612430565b82800160010185558215612430579182015b8281111561242f578251825591602001919060010190612414565b5b50905061243d9190612441565b5090565b61246391905b8082111561245f576000816000905550600101612447565b5090565b9056fe596f75206861766520616c72656164792076616c69646174656420796f75722070617274696369706174696f6e4f776e61626c653a206e6577206f776e657220697320746865207a65726f2061646472657373596f75206e65656420746f2076616c696461746520796f75722070617274696369706174696f6e546865206d6178696d756d206e756d626572206f66207061727469636970616e74732069732072656163686564a2646970667358221220b5bec31274ae794ad8db53eb5a300a6f81291ca62d5b510a6071c8043fff767c64736f6c63430006050033",
  "compiler": {
    "name": "solc",
    "version": "0.6.5+commit.f956cc89.Emscripten.clang",
    "optimizer": {
      "enabled": false,
      "runs": 200
    },
    "evmVersion": "petersburg"
  }
}