{
  "fileName": "GiveAway.sol",
  "contractName": "GiveAway",
  "source": "// contracts/GiveAway.sol\n// SPDX-License-Identifier: Apache-2.0\npragma solidity >=0.6.0 <0.8.0;\n\nimport \"@openzeppelin/contracts/access/Ownable.sol\";\nimport \"@openzeppelin/contracts/utils/Pausable.sol\";\n\ninterface IPOSDAORandom {\n    function collectRoundLength() external view returns(uint256);\n    function currentSeed() external view returns(uint256);\n}\n\ncontract GiveAway is Ownable, Pausable{\n\n    uint public constant RETWEET_INDEX = 0;\n\n    uint public constant LIKE_INDEX = 1;\n\n    struct Rules {\n        uint256 scoreRetweet;\n        uint256 scoreLike;\n    }\n\n    struct Participant {\n        bytes id;\n        uint[2] status;\n    }\n\n    string public _name;\n    uint256 public _maxParticipants;\n    Rules public _rules;\n\n\n    address [] _listParticipants;\n    mapping(address => Participant) public _participants;\n    mapping(uint256 => uint256) public participantsScores;\n    string public _tweetLink;\n    uint256 public winnerIndex;\n\n    IPOSDAORandom private _posdaoRandomContract; // address of RandomAuRa contract\n\n    modifier onlyRegisteredUser()\n    {\n        require(keccak256(_participants[msg.sender].id) != keccak256(bytes(\"\")), \"You need to validate your participation\");\n        _;\n    }\n\n    constructor (IPOSDAORandom randomContract, string memory name, string memory tweetLink, uint256 maxParticipants, uint256 scoreRetweet, uint256 scoreLike) public payable {\n        require(msg.value>0);\n        require(randomContract != IPOSDAORandom(0));\n        _posdaoRandomContract = randomContract;\n        _maxParticipants = maxParticipants;\n        _name = name;\n        _rules = Rules(scoreRetweet, scoreLike);\n        _tweetLink = tweetLink;\n    }\n\n    function participate(string memory id) public payable whenNotPaused{\n        require(_listParticipants.length < _maxParticipants, \"The maximum number of participants is reached\");\n        require(keccak256(_participants[msg.sender].id) == keccak256(bytes(\"\")), \"You have already validated your participation\");\n        _listParticipants.push(msg.sender);\n        _participants[msg.sender].id = bytes(id) ;\n    }\n\n    function retweet() public payable onlyRegisteredUser whenNotPaused{\n        require(_participants[msg.sender].status[RETWEET_INDEX] == 0, \"You can only retweet once\");\n        _participants[msg.sender].status[RETWEET_INDEX] = 1;\n    }\n\n    function like() public payable onlyRegisteredUser whenNotPaused {\n        require(_participants[msg.sender].status[LIKE_INDEX] == 0, \"You can only like once\");\n        _participants[msg.sender].status[LIKE_INDEX] = 1;\n\n    }\n\n    function getMyScore() public view returns (uint256) {\n        return getScore(msg.sender);\n    }\n\n    function getScore(address participant) public view returns (uint256) {\n        return _participants[participant].status[RETWEET_INDEX] * _rules.scoreRetweet\n        + _participants[participant].status[LIKE_INDEX] * _rules.scoreLike;\n\n    }\n\n    function isUserParticipating(address participant) public view returns (bool){\n        return keccak256(_participants[participant].id) != keccak256(bytes(\"\"));\n    }\n\n    function amIParticipating() public view returns (bool){\n        return isUserParticipating(msg.sender);\n    }\n\n    function numberOfParticipants() public view returns (uint256){\n        return _listParticipants.length;\n    }\n\n    function close() public payable onlyOwner whenNotPaused {\n        uint256 seed = _posdaoRandomContract.currentSeed();\n        uint256 scoreWinner = 0;\n        for (uint i = 0; i < _listParticipants.length; i++) {\n            uint currentScore = getScore(_listParticipants[i]);\n            participantsScores[i] = currentScore;\n            if(currentScore >= scoreWinner){\n                scoreWinner = currentScore;\n            }\n        }\n        uint256[] storage winnersCandidates;\n        for (uint i = 0; i < _listParticipants.length; i++) {\n            if(participantsScores[i]==scoreWinner){\n                winnersCandidates.push(i);\n            }\n        }\n        winnerIndex = winnersCandidates[seed%winnersCandidates.length];\n        _pause();\n    }\n\n    function getWinnerId() public view whenPaused returns(string memory){\n        require(numberOfParticipants()>0, \"No found participant\");\n        return string(_participants[_listParticipants[winnerIndex]].id);\n    }\n    function getWinnerAddress() public view whenPaused returns(address){\n        require(numberOfParticipants()>0, \"No found participant\");\n        return _listParticipants[winnerIndex];\n    }\n\n    function getSeedForCurrentPhase() public view returns (uint256){\n        return _posdaoRandomContract.currentSeed();\n    }\n\n    function getSeedModuloX(uint x) public view returns (uint256){\n        uint256 seed = _posdaoRandomContract.currentSeed();\n        return seed % x;\n    }\n\n}\n",
  "sourcePath": "contracts/GiveAway.sol",
  "abi": [
    {
      "inputs": [
        {
          "internalType": "contract IPOSDAORandom",
          "name": "randomContract",
          "type": "address"
        },
        {
          "internalType": "string",
          "name": "name",
          "type": "string"
        },
        {
          "internalType": "string",
          "name": "tweetLink",
          "type": "string"
        },
        {
          "internalType": "uint256",
          "name": "maxParticipants",
          "type": "uint256"
        },
        {
          "internalType": "uint256",
          "name": "scoreRetweet",
          "type": "uint256"
        },
        {
          "internalType": "uint256",
          "name": "scoreLike",
          "type": "uint256"
        }
      ],
      "stateMutability": "payable",
      "type": "constructor"
    },
    {
      "anonymous": false,
      "inputs": [
        {
          "indexed": true,
          "internalType": "address",
          "name": "previousOwner",
          "type": "address"
        },
        {
          "indexed": true,
          "internalType": "address",
          "name": "newOwner",
          "type": "address"
        }
      ],
      "name": "OwnershipTransferred",
      "type": "event"
    },
    {
      "anonymous": false,
      "inputs": [
        {
          "indexed": false,
          "internalType": "address",
          "name": "account",
          "type": "address"
        }
      ],
      "name": "Paused",
      "type": "event"
    },
    {
      "anonymous": false,
      "inputs": [
        {
          "indexed": false,
          "internalType": "address",
          "name": "account",
          "type": "address"
        }
      ],
      "name": "Unpaused",
      "type": "event"
    },
    {
      "inputs": [],
      "name": "LIKE_INDEX",
      "outputs": [
        {
          "internalType": "uint256",
          "name": "",
          "type": "uint256"
        }
      ],
      "stateMutability": "view",
      "type": "function"
    },
    {
      "inputs": [],
      "name": "RETWEET_INDEX",
      "outputs": [
        {
          "internalType": "uint256",
          "name": "",
          "type": "uint256"
        }
      ],
      "stateMutability": "view",
      "type": "function"
    },
    {
      "inputs": [],
      "name": "_maxParticipants",
      "outputs": [
        {
          "internalType": "uint256",
          "name": "",
          "type": "uint256"
        }
      ],
      "stateMutability": "view",
      "type": "function"
    },
    {
      "inputs": [],
      "name": "_name",
      "outputs": [
        {
          "internalType": "string",
          "name": "",
          "type": "string"
        }
      ],
      "stateMutability": "view",
      "type": "function"
    },
    {
      "inputs": [
        {
          "internalType": "address",
          "name": "",
          "type": "address"
        }
      ],
      "name": "_participants",
      "outputs": [
        {
          "internalType": "bytes",
          "name": "id",
          "type": "bytes"
        }
      ],
      "stateMutability": "view",
      "type": "function"
    },
    {
      "inputs": [],
      "name": "_rules",
      "outputs": [
        {
          "internalType": "uint256",
          "name": "scoreRetweet",
          "type": "uint256"
        },
        {
          "internalType": "uint256",
          "name": "scoreLike",
          "type": "uint256"
        }
      ],
      "stateMutability": "view",
      "type": "function"
    },
    {
      "inputs": [],
      "name": "_tweetLink",
      "outputs": [
        {
          "internalType": "string",
          "name": "",
          "type": "string"
        }
      ],
      "stateMutability": "view",
      "type": "function"
    },
    {
      "inputs": [],
      "name": "amIParticipating",
      "outputs": [
        {
          "internalType": "bool",
          "name": "",
          "type": "bool"
        }
      ],
      "stateMutability": "view",
      "type": "function"
    },
    {
      "inputs": [],
      "name": "close",
      "outputs": [],
      "stateMutability": "payable",
      "type": "function"
    },
    {
      "inputs": [],
      "name": "getMyScore",
      "outputs": [
        {
          "internalType": "uint256",
          "name": "",
          "type": "uint256"
        }
      ],
      "stateMutability": "view",
      "type": "function"
    },
    {
      "inputs": [
        {
          "internalType": "address",
          "name": "participant",
          "type": "address"
        }
      ],
      "name": "getScore",
      "outputs": [
        {
          "internalType": "uint256",
          "name": "",
          "type": "uint256"
        }
      ],
      "stateMutability": "view",
      "type": "function"
    },
    {
      "inputs": [],
      "name": "getSeedForCurrentPhase",
      "outputs": [
        {
          "internalType": "uint256",
          "name": "",
          "type": "uint256"
        }
      ],
      "stateMutability": "view",
      "type": "function"
    },
    {
      "inputs": [
        {
          "internalType": "uint256",
          "name": "x",
          "type": "uint256"
        }
      ],
      "name": "getSeedModuloX",
      "outputs": [
        {
          "internalType": "uint256",
          "name": "",
          "type": "uint256"
        }
      ],
      "stateMutability": "view",
      "type": "function"
    },
    {
      "inputs": [],
      "name": "getWinnerAddress",
      "outputs": [
        {
          "internalType": "address",
          "name": "",
          "type": "address"
        }
      ],
      "stateMutability": "view",
      "type": "function"
    },
    {
      "inputs": [],
      "name": "getWinnerId",
      "outputs": [
        {
          "internalType": "string",
          "name": "",
          "type": "string"
        }
      ],
      "stateMutability": "view",
      "type": "function"
    },
    {
      "inputs": [
        {
          "internalType": "address",
          "name": "participant",
          "type": "address"
        }
      ],
      "name": "isUserParticipating",
      "outputs": [
        {
          "internalType": "bool",
          "name": "",
          "type": "bool"
        }
      ],
      "stateMutability": "view",
      "type": "function"
    },
    {
      "inputs": [],
      "name": "like",
      "outputs": [],
      "stateMutability": "payable",
      "type": "function"
    },
    {
      "inputs": [],
      "name": "numberOfParticipants",
      "outputs": [
        {
          "internalType": "uint256",
          "name": "",
          "type": "uint256"
        }
      ],
      "stateMutability": "view",
      "type": "function"
    },
    {
      "inputs": [],
      "name": "owner",
      "outputs": [
        {
          "internalType": "address",
          "name": "",
          "type": "address"
        }
      ],
      "stateMutability": "view",
      "type": "function"
    },
    {
      "inputs": [
        {
          "internalType": "uint256",
          "name": "",
          "type": "uint256"
        }
      ],
      "name": "participantsScores",
      "outputs": [
        {
          "internalType": "uint256",
          "name": "",
          "type": "uint256"
        }
      ],
      "stateMutability": "view",
      "type": "function"
    },
    {
      "inputs": [
        {
          "internalType": "string",
          "name": "id",
          "type": "string"
        }
      ],
      "name": "participate",
      "outputs": [],
      "stateMutability": "payable",
      "type": "function"
    },
    {
      "inputs": [],
      "name": "paused",
      "outputs": [
        {
          "internalType": "bool",
          "name": "",
          "type": "bool"
        }
      ],
      "stateMutability": "view",
      "type": "function"
    },
    {
      "inputs": [],
      "name": "renounceOwnership",
      "outputs": [],
      "stateMutability": "nonpayable",
      "type": "function"
    },
    {
      "inputs": [],
      "name": "retweet",
      "outputs": [],
      "stateMutability": "payable",
      "type": "function"
    },
    {
      "inputs": [
        {
          "internalType": "address",
          "name": "newOwner",
          "type": "address"
        }
      ],
      "name": "transferOwnership",
      "outputs": [],
      "stateMutability": "nonpayable",
      "type": "function"
    },
    {
      "inputs": [],
      "name": "winnerIndex",
      "outputs": [
        {
          "internalType": "uint256",
          "name": "",
          "type": "uint256"
        }
      ],
      "stateMutability": "view",
      "type": "function"
    }
  ],
  "bytecode": "0x6080604052604051620027c3380380620027c3833981810160405260c08110156200002957600080fd5b8101908080519060200190929190805160405193929190846401000000008211156200005457600080fd5b838201915060208201858111156200006b57600080fd5b82518660018202830111640100000000821117156200008957600080fd5b8083526020830192505050908051906020019080838360005b83811015620000bf578082015181840152602081019050620000a2565b50505050905090810190601f168015620000ed5780820380516001836020036101000a031916815260200191505b50604052602001805160405193929190846401000000008211156200011157600080fd5b838201915060208201858111156200012857600080fd5b82518660018202830111640100000000821117156200014657600080fd5b8083526020830192505050908051906020019080838360005b838110156200017c5780820151818401526020810190506200015f565b50505050905090810190601f168015620001aa5780820380516001836020036101000a031916815260200191505b506040526020018051906020019092919080519060200190929190805190602001909291905050506000620001e46200039960201b60201c565b9050806000806101000a81548173ffffffffffffffffffffffffffffffffffffffff021916908373ffffffffffffffffffffffffffffffffffffffff1602179055508073ffffffffffffffffffffffffffffffffffffffff16600073ffffffffffffffffffffffffffffffffffffffff167f8be0079c531659141344cd1fd0a4f28419497f9722a3daafe3b4186f6b6457e060405160405180910390a35060008060146101000a81548160ff02191690831515021790555060003411620002aa57600080fd5b600073ffffffffffffffffffffffffffffffffffffffff168673ffffffffffffffffffffffffffffffffffffffff161415620002e557600080fd5b85600a60006101000a81548173ffffffffffffffffffffffffffffffffffffffff021916908373ffffffffffffffffffffffffffffffffffffffff16021790555082600281905550846001908051906020019062000345929190620003a1565b506040518060400160405280838152602001828152506003600082015181600001556020820151816001015590505083600890805190602001906200038c929190620003a1565b5050505050505062000450565b600033905090565b828054600181600116156101000203166002900490600052602060002090601f016020900481019282601f10620003e457805160ff191683800117855562000415565b8280016001018555821562000415579182015b8281111562000414578251825591602001919060010190620003f7565b5b50905062000424919062000428565b5090565b6200044d91905b80821115620004495760008160009055506001016200042f565b5090565b90565b61236380620004606000396000f3fe6080604052600436106101815760003560e01c80638da5cb5b116100d1578063d47875d01161008a578063f1bf4ac411610064578063f1bf4ac41461083c578063f2fde38b1461088b578063f578ebaa146108dc578063f60e49b5146108e657610181565b8063d47875d0146106e2578063d5fedc5014610747578063f1599f2c1461081157610181565b80638da5cb5b1461056c5780638f00cbfa146105c35780639f89e755146105ee578063a523b88a1461061d578063b5e9757c14610627578063d28d88521461065257610181565b806343d726d61161013e5780637417040e116101185780637417040e146104375780637c1f9dc51461046257806388782c8c146104f25780638a258aa81461054157610181565b806343d726d6146103e75780635c975abb146103f1578063715018a61461042057610181565b80630aea68061461018657806310a37c26146102165780631d27769f1461026d57806327b9d6f71461032857806327c87c33146103915780632c044a25146103bc575b600080fd5b34801561019257600080fd5b5061019b610918565b6040518080602001828103825283818151815260200191508051906020019080838360005b838110156101db5780820151818401526020810190506101c0565b50505050905090810190601f1680156102085780820380516001836020036101000a031916815260200191505b509250505060405180910390f35b34801561022257600080fd5b5061022b610b32565b604051808273ffffffffffffffffffffffffffffffffffffffff1673ffffffffffffffffffffffffffffffffffffffff16815260200191505060405180910390f35b6103266004803603602081101561028357600080fd5b81019080803590602001906401000000008111156102a057600080fd5b8201836020820111156102b257600080fd5b803590602001918460018302840111640100000000831117156102d457600080fd5b91908080601f016020809104026020016040519081016040528093929190818152602001838380828437600081840152601f19601f820116905080830192505050505050509192919290505050610c71565b005b34801561033457600080fd5b506103776004803603602081101561034b57600080fd5b81019080803573ffffffffffffffffffffffffffffffffffffffff169060200190929190505050610f27565b604051808215151515815260200191505060405180910390f35b34801561039d57600080fd5b506103a6610ff3565b6040518082815260200191505060405180910390f35b3480156103c857600080fd5b506103d1610ff8565b6040518082815260200191505060405180910390f35b6103ef6110a2565b005b3480156103fd57600080fd5b506104066113c1565b604051808215151515815260200191505060405180910390f35b34801561042c57600080fd5b506104356113d7565b005b34801561044357600080fd5b5061044c61155f565b6040518082815260200191505060405180910390f35b34801561046e57600080fd5b5061047761156c565b6040518080602001828103825283818151815260200191508051906020019080838360005b838110156104b757808201518184015260208101905061049c565b50505050905090810190601f1680156104e45780820380516001836020036101000a031916815260200191505b509250505060405180910390f35b3480156104fe57600080fd5b5061052b6004803603602081101561051557600080fd5b810190808035906020019092919050505061160a565b6040518082815260200191505060405180910390f35b34801561054d57600080fd5b50610556611622565b6040518082815260200191505060405180910390f35b34801561057857600080fd5b50610581611627565b604051808273ffffffffffffffffffffffffffffffffffffffff1673ffffffffffffffffffffffffffffffffffffffff16815260200191505060405180910390f35b3480156105cf57600080fd5b506105d8611650565b6040518082815260200191505060405180910390f35b3480156105fa57600080fd5b50610603611656565b604051808215151515815260200191505060405180910390f35b610625611666565b005b34801561063357600080fd5b5061063c61191d565b6040518082815260200191505060405180910390f35b34801561065e57600080fd5b50610667611923565b6040518080602001828103825283818151815260200191508051906020019080838360005b838110156106a757808201518184015260208101905061068c565b50505050905090810190601f1680156106d45780820380516001836020036101000a031916815260200191505b509250505060405180910390f35b3480156106ee57600080fd5b506107316004803603602081101561070557600080fd5b81019080803573ffffffffffffffffffffffffffffffffffffffff1690602001909291905050506119c1565b6040518082815260200191505060405180910390f35b34801561075357600080fd5b506107966004803603602081101561076a57600080fd5b81019080803573ffffffffffffffffffffffffffffffffffffffff169060200190929190505050611a79565b6040518080602001828103825283818151815260200191508051906020019080838360005b838110156107d65780820151818401526020810190506107bb565b50505050905090810190601f1680156108035780820380516001836020036101000a031916815260200191505b509250505060405180910390f35b34801561081d57600080fd5b50610826611b2f565b6040518082815260200191505060405180910390f35b34801561084857600080fd5b506108756004803603602081101561085f57600080fd5b8101908080359060200190929190505050611b3f565b6040518082815260200191505060405180910390f35b34801561089757600080fd5b506108da600480360360208110156108ae57600080fd5b81019080803573ffffffffffffffffffffffffffffffffffffffff169060200190929190505050611bf9565b005b6108e4611e06565b005b3480156108f257600080fd5b506108fb6120bd565b604051808381526020018281526020019250505060405180910390f35b6060600060149054906101000a900460ff1661099c576040517f08c379a00000000000000000000000000000000000000000000000000000000081526004018080602001828103825260148152602001807f5061757361626c653a206e6f742070617573656400000000000000000000000081525060200191505060405180910390fd5b60006109a661155f565b11610a19576040517f08c379a00000000000000000000000000000000000000000000000000000000081526004018080602001828103825260148152602001807f4e6f20666f756e64207061727469636970616e7400000000000000000000000081525060200191505060405180910390fd5b60066000600560095481548110610a2c57fe5b9060005260206000200160009054906101000a900473ffffffffffffffffffffffffffffffffffffffff1673ffffffffffffffffffffffffffffffffffffffff1673ffffffffffffffffffffffffffffffffffffffff1681526020019081526020016000206000018054600181600116156101000203166002900480601f016020809104026020016040519081016040528092919081815260200182805460018160011615610100020316600290048015610b285780601f10610afd57610100808354040283529160200191610b28565b820191906000526020600020905b815481529060010190602001808311610b0b57829003601f168201915b5050505050905090565b60008060149054906101000a900460ff16610bb5576040517f08c379a00000000000000000000000000000000000000000000000000000000081526004018080602001828103825260148152602001807f5061757361626c653a206e6f742070617573656400000000000000000000000081525060200191505060405180910390fd5b6000610bbf61155f565b11610c32576040517f08c379a00000000000000000000000000000000000000000000000000000000081526004018080602001828103825260148152602001807f4e6f20666f756e64207061727469636970616e7400000000000000000000000081525060200191505060405180910390fd5b600560095481548110610c4157fe5b9060005260206000200160009054906101000a900473ffffffffffffffffffffffffffffffffffffffff16905090565b600060149054906101000a900460ff1615610cf4576040517f08c379a00000000000000000000000000000000000000000000000000000000081526004018080602001828103825260108152602001807f5061757361626c653a207061757365640000000000000000000000000000000081525060200191505060405180910390fd5b60025460058054905010610d53576040517f08c379a000000000000000000000000000000000000000000000000000000000815260040180806020018281038252602d815260200180612301602d913960400191505060405180910390fd5b6040518060200160405280600081525080519060200120600660003373ffffffffffffffffffffffffffffffffffffffff1673ffffffffffffffffffffffffffffffffffffffff1681526020019081526020016000206000016040518082805460018160011615610100020316600290048015610e075780601f10610de5576101008083540402835291820191610e07565b820191906000526020600020905b815481529060010190602001808311610df3575b5050915050604051809103902014610e6a576040517f08c379a000000000000000000000000000000000000000000000000000000000815260040180806020018281038252602d815260200180612287602d913960400191505060405180910390fd5b6005339080600181540180825580915050600190039060005260206000200160009091909190916101000a81548173ffffffffffffffffffffffffffffffffffffffff021916908373ffffffffffffffffffffffffffffffffffffffff16021790555080600660003373ffffffffffffffffffffffffffffffffffffffff1673ffffffffffffffffffffffffffffffffffffffff1681526020019081526020016000206000019080519060200190610f239291906121e1565b5050565b60006040518060200160405280600081525080519060200120600660008473ffffffffffffffffffffffffffffffffffffffff1673ffffffffffffffffffffffffffffffffffffffff1681526020019081526020016000206000016040518082805460018160011615610100020316600290048015610fdd5780601f10610fbb576101008083540402835291820191610fdd565b820191906000526020600020905b815481529060010190602001808311610fc9575b5050915050604051809103902014159050919050565b600181565b6000600a60009054906101000a900473ffffffffffffffffffffffffffffffffffffffff1673ffffffffffffffffffffffffffffffffffffffff1663832206266040518163ffffffff1660e01b815260040160206040518083038186803b15801561106257600080fd5b505afa158015611076573d6000803e3d6000fd5b505050506040513d602081101561108c57600080fd5b8101908080519060200190929190505050905090565b6110aa6120cf565b73ffffffffffffffffffffffffffffffffffffffff166000809054906101000a900473ffffffffffffffffffffffffffffffffffffffff1673ffffffffffffffffffffffffffffffffffffffff161461116b576040517f08c379a00000000000000000000000000000000000000000000000000000000081526004018080602001828103825260208152602001807f4f776e61626c653a2063616c6c6572206973206e6f7420746865206f776e657281525060200191505060405180910390fd5b600060149054906101000a900460ff16156111ee576040517f08c379a00000000000000000000000000000000000000000000000000000000081526004018080602001828103825260108152602001807f5061757361626c653a207061757365640000000000000000000000000000000081525060200191505060405180910390fd5b6000600a60009054906101000a900473ffffffffffffffffffffffffffffffffffffffff1673ffffffffffffffffffffffffffffffffffffffff1663832206266040518163ffffffff1660e01b815260040160206040518083038186803b15801561125857600080fd5b505afa15801561126c573d6000803e3d6000fd5b505050506040513d602081101561128257600080fd5b81019080805190602001909291905050509050600080905060008090505b6005805490508110156113225760006112ef600583815481106112bf57fe5b9060005260206000200160009054906101000a900473ffffffffffffffffffffffffffffffffffffffff166119c1565b9050806007600084815260200190815260200160002081905550828110611314578092505b5080806001019150506112a0565b50600080600090505b60058054905081101561138957826007600083815260200190815260200160002054141561137c57818190806001815401808255809150506001900390600052602060002001600090919091909150555b808060010191505061132b565b50808180549050848161139857fe5b06815481106113a357fe5b90600052602060002001546009819055506113bc6120d7565b505050565b60008060149054906101000a900460ff16905090565b6113df6120cf565b73ffffffffffffffffffffffffffffffffffffffff166000809054906101000a900473ffffffffffffffffffffffffffffffffffffffff1673ffffffffffffffffffffffffffffffffffffffff16146114a0576040517f08c379a00000000000000000000000000000000000000000000000000000000081526004018080602001828103825260208152602001807f4f776e61626c653a2063616c6c6572206973206e6f7420746865206f776e657281525060200191505060405180910390fd5b600073ffffffffffffffffffffffffffffffffffffffff166000809054906101000a900473ffffffffffffffffffffffffffffffffffffffff1673ffffffffffffffffffffffffffffffffffffffff167f8be0079c531659141344cd1fd0a4f28419497f9722a3daafe3b4186f6b6457e060405160405180910390a360008060006101000a81548173ffffffffffffffffffffffffffffffffffffffff021916908373ffffffffffffffffffffffffffffffffffffffff160217905550565b6000600580549050905090565b60088054600181600116156101000203166002900480601f0160208091040260200160405190810160405280929190818152602001828054600181600116156101000203166002900480156116025780601f106115d757610100808354040283529160200191611602565b820191906000526020600020905b8154815290600101906020018083116115e557829003601f168201915b505050505081565b60076020528060005260406000206000915090505481565b600081565b60008060009054906101000a900473ffffffffffffffffffffffffffffffffffffffff16905090565b60095481565b600061166133610f27565b905090565b6040518060200160405280600081525080519060200120600660003373ffffffffffffffffffffffffffffffffffffffff1673ffffffffffffffffffffffffffffffffffffffff168152602001908152602001600020600001604051808280546001816001161561010002031660029004801561171a5780601f106116f857610100808354040283529182019161171a565b820191906000526020600020905b815481529060010190602001808311611706575b50509150506040518091039020141561177e576040517f08c379a00000000000000000000000000000000000000000000000000000000081526004018080602001828103825260278152602001806122da6027913960400191505060405180910390fd5b600060149054906101000a900460ff1615611801576040517f08c379a00000000000000000000000000000000000000000000000000000000081526004018080602001828103825260108152602001807f5061757361626c653a207061757365640000000000000000000000000000000081525060200191505060405180910390fd5b6000600660003373ffffffffffffffffffffffffffffffffffffffff1673ffffffffffffffffffffffffffffffffffffffff16815260200190815260200160002060010160016002811061185157fe5b0154146118c6576040517f08c379a00000000000000000000000000000000000000000000000000000000081526004018080602001828103825260168152602001807f596f752063616e206f6e6c79206c696b65206f6e63650000000000000000000081525060200191505060405180910390fd5b6001600660003373ffffffffffffffffffffffffffffffffffffffff1673ffffffffffffffffffffffffffffffffffffffff16815260200190815260200160002060010160016002811061191657fe5b0181905550565b60025481565b60018054600181600116156101000203166002900480601f0160208091040260200160405190810160405280929190818152602001828054600181600116156101000203166002900480156119b95780601f1061198e576101008083540402835291602001916119b9565b820191906000526020600020905b81548152906001019060200180831161199c57829003601f168201915b505050505081565b6000600360010154600660008473ffffffffffffffffffffffffffffffffffffffff1673ffffffffffffffffffffffffffffffffffffffff168152602001908152602001600020600101600160028110611a1757fe5b015402600360000154600660008573ffffffffffffffffffffffffffffffffffffffff1673ffffffffffffffffffffffffffffffffffffffff168152602001908152602001600020600101600060028110611a6e57fe5b015402019050919050565b6006602052806000526040600020600091509050806000018054600181600116156101000203166002900480601f016020809104026020016040519081016040528092919081815260200182805460018160011615610100020316600290048015611b255780601f10611afa57610100808354040283529160200191611b25565b820191906000526020600020905b815481529060010190602001808311611b0857829003601f168201915b5050505050905081565b6000611b3a336119c1565b905090565b600080600a60009054906101000a900473ffffffffffffffffffffffffffffffffffffffff1673ffffffffffffffffffffffffffffffffffffffff1663832206266040518163ffffffff1660e01b815260040160206040518083038186803b158015611baa57600080fd5b505afa158015611bbe573d6000803e3d6000fd5b505050506040513d6020811015611bd457600080fd5b81019080805190602001909291905050509050828181611bf057fe5b06915050919050565b611c016120cf565b73ffffffffffffffffffffffffffffffffffffffff166000809054906101000a900473ffffffffffffffffffffffffffffffffffffffff1673ffffffffffffffffffffffffffffffffffffffff1614611cc2576040517f08c379a00000000000000000000000000000000000000000000000000000000081526004018080602001828103825260208152602001807f4f776e61626c653a2063616c6c6572206973206e6f7420746865206f776e657281525060200191505060405180910390fd5b600073ffffffffffffffffffffffffffffffffffffffff168173ffffffffffffffffffffffffffffffffffffffff161415611d48576040517f08c379a00000000000000000000000000000000000000000000000000000000081526004018080602001828103825260268152602001806122b46026913960400191505060405180910390fd5b8073ffffffffffffffffffffffffffffffffffffffff166000809054906101000a900473ffffffffffffffffffffffffffffffffffffffff1673ffffffffffffffffffffffffffffffffffffffff167f8be0079c531659141344cd1fd0a4f28419497f9722a3daafe3b4186f6b6457e060405160405180910390a3806000806101000a81548173ffffffffffffffffffffffffffffffffffffffff021916908373ffffffffffffffffffffffffffffffffffffffff16021790555050565b6040518060200160405280600081525080519060200120600660003373ffffffffffffffffffffffffffffffffffffffff1673ffffffffffffffffffffffffffffffffffffffff1681526020019081526020016000206000016040518082805460018160011615610100020316600290048015611eba5780601f10611e98576101008083540402835291820191611eba565b820191906000526020600020905b815481529060010190602001808311611ea6575b505091505060405180910390201415611f1e576040517f08c379a00000000000000000000000000000000000000000000000000000000081526004018080602001828103825260278152602001806122da6027913960400191505060405180910390fd5b600060149054906101000a900460ff1615611fa1576040517f08c379a00000000000000000000000000000000000000000000000000000000081526004018080602001828103825260108152602001807f5061757361626c653a207061757365640000000000000000000000000000000081525060200191505060405180910390fd5b6000600660003373ffffffffffffffffffffffffffffffffffffffff1673ffffffffffffffffffffffffffffffffffffffff168152602001908152602001600020600101600060028110611ff157fe5b015414612066576040517f08c379a00000000000000000000000000000000000000000000000000000000081526004018080602001828103825260198152602001807f596f752063616e206f6e6c792072657477656574206f6e63650000000000000081525060200191505060405180910390fd5b6001600660003373ffffffffffffffffffffffffffffffffffffffff1673ffffffffffffffffffffffffffffffffffffffff1681526020019081526020016000206001016000600281106120b657fe5b0181905550565b60038060000154908060010154905082565b600033905090565b600060149054906101000a900460ff161561215a576040517f08c379a00000000000000000000000000000000000000000000000000000000081526004018080602001828103825260108152602001807f5061757361626c653a207061757365640000000000000000000000000000000081525060200191505060405180910390fd5b6001600060146101000a81548160ff0219169083151502179055507f62e78cea01bee320cd4e420270b5ea74000d11b0c9f74754ebdbfc544b05a25861219e6120cf565b604051808273ffffffffffffffffffffffffffffffffffffffff1673ffffffffffffffffffffffffffffffffffffffff16815260200191505060405180910390a1565b828054600181600116156101000203166002900490600052602060002090601f016020900481019282601f1061222257805160ff1916838001178555612250565b82800160010185558215612250579182015b8281111561224f578251825591602001919060010190612234565b5b50905061225d9190612261565b5090565b61228391905b8082111561227f576000816000905550600101612267565b5090565b9056fe596f75206861766520616c72656164792076616c69646174656420796f75722070617274696369706174696f6e4f776e61626c653a206e6577206f776e657220697320746865207a65726f2061646472657373596f75206e65656420746f2076616c696461746520796f75722070617274696369706174696f6e546865206d6178696d756d206e756d626572206f66207061727469636970616e74732069732072656163686564a2646970667358221220a66d48178cca6ed3ed00c367b390b163def808e18f1bee4241eeb32289711ffb64736f6c63430006050033",
  "compiler": {
    "name": "solc",
    "version": "0.6.5+commit.f956cc89.Emscripten.clang",
    "optimizer": {
      "enabled": false,
      "runs": 200
    },
    "evmVersion": "petersburg"
  }
}